{
  "_format": "hh-sol-artifact-1",
  "contractName": "TestNFT",
  "sourceName": "contracts/TestNFT.sol",
  "abi": [
    {
      "inputs": [],
      "stateMutability": "nonpayable",
      "type": "constructor"
    },
    {
      "anonymous": false,
      "inputs": [
        {
          "indexed": true,
          "internalType": "address",
          "name": "owner",
          "type": "address"
        },
        {
          "indexed": true,
          "internalType": "address",
          "name": "approved",
          "type": "address"
        },
        {
          "indexed": true,
          "internalType": "uint256",
          "name": "tokenId",
          "type": "uint256"
        }
      ],
      "name": "Approval",
      "type": "event"
    },
    {
      "anonymous": false,
      "inputs": [
        {
          "indexed": true,
          "internalType": "address",
          "name": "owner",
          "type": "address"
        },
        {
          "indexed": true,
          "internalType": "address",
          "name": "operator",
          "type": "address"
        },
        {
          "indexed": false,
          "internalType": "bool",
          "name": "approved",
          "type": "bool"
        }
      ],
      "name": "ApprovalForAll",
      "type": "event"
    },
    {
      "anonymous": false,
      "inputs": [
        {
          "indexed": true,
          "internalType": "address",
          "name": "previousOwner",
          "type": "address"
        },
        {
          "indexed": true,
          "internalType": "address",
          "name": "newOwner",
          "type": "address"
        }
      ],
      "name": "OwnershipTransferred",
      "type": "event"
    },
    {
      "anonymous": false,
      "inputs": [
        {
          "indexed": true,
          "internalType": "address",
          "name": "from",
          "type": "address"
        },
        {
          "indexed": true,
          "internalType": "address",
          "name": "to",
          "type": "address"
        },
        {
          "indexed": true,
          "internalType": "uint256",
          "name": "tokenId",
          "type": "uint256"
        }
      ],
      "name": "Transfer",
      "type": "event"
    },
    {
      "inputs": [
        {
          "internalType": "address",
          "name": "to",
          "type": "address"
        },
        {
          "internalType": "uint256",
          "name": "tokenId",
          "type": "uint256"
        }
      ],
      "name": "approve",
      "outputs": [],
      "stateMutability": "nonpayable",
      "type": "function"
    },
    {
      "inputs": [
        {
          "internalType": "address",
          "name": "owner",
          "type": "address"
        }
      ],
      "name": "balanceOf",
      "outputs": [
        {
          "internalType": "uint256",
          "name": "",
          "type": "uint256"
        }
      ],
      "stateMutability": "view",
      "type": "function"
    },
    {
      "inputs": [],
      "name": "currentCounter",
      "outputs": [
        {
          "internalType": "uint256",
          "name": "",
          "type": "uint256"
        }
      ],
      "stateMutability": "view",
      "type": "function"
    },
    {
      "inputs": [
        {
          "internalType": "uint256",
          "name": "tokenId",
          "type": "uint256"
        }
      ],
      "name": "getApproved",
      "outputs": [
        {
          "internalType": "address",
          "name": "",
          "type": "address"
        }
      ],
      "stateMutability": "view",
      "type": "function"
    },
    {
      "inputs": [
        {
          "internalType": "address",
          "name": "owner",
          "type": "address"
        },
        {
          "internalType": "address",
          "name": "operator",
          "type": "address"
        }
      ],
      "name": "isApprovedForAll",
      "outputs": [
        {
          "internalType": "bool",
          "name": "",
          "type": "bool"
        }
      ],
      "stateMutability": "view",
      "type": "function"
    },
    {
      "inputs": [],
      "name": "name",
      "outputs": [
        {
          "internalType": "string",
          "name": "",
          "type": "string"
        }
      ],
      "stateMutability": "view",
      "type": "function"
    },
    {
      "inputs": [],
      "name": "owner",
      "outputs": [
        {
          "internalType": "address",
          "name": "",
          "type": "address"
        }
      ],
      "stateMutability": "view",
      "type": "function"
    },
    {
      "inputs": [
        {
          "internalType": "uint256",
          "name": "tokenId",
          "type": "uint256"
        }
      ],
      "name": "ownerOf",
      "outputs": [
        {
          "internalType": "address",
          "name": "",
          "type": "address"
        }
      ],
      "stateMutability": "view",
      "type": "function"
    },
    {
      "inputs": [
        {
          "internalType": "uint256",
          "name": "_tokenId",
          "type": "uint256"
        }
      ],
      "name": "readText",
      "outputs": [
        {
          "internalType": "string",
          "name": "returnBuffer",
          "type": "string"
        }
      ],
      "stateMutability": "view",
      "type": "function"
    },
    {
      "inputs": [],
      "name": "renounceOwnership",
      "outputs": [],
      "stateMutability": "nonpayable",
      "type": "function"
    },
    {
      "inputs": [
        {
          "internalType": "address",
          "name": "to",
          "type": "address"
        },
        {
          "internalType": "string",
          "name": "uri",
          "type": "string"
        }
      ],
      "name": "safeMintImage",
      "outputs": [],
      "stateMutability": "nonpayable",
      "type": "function"
    },
    {
      "inputs": [
        {
          "internalType": "address",
          "name": "to",
          "type": "address"
        },
        {
          "internalType": "string",
          "name": "text",
          "type": "string"
        }
      ],
      "name": "safeMintText",
      "outputs": [],
      "stateMutability": "nonpayable",
      "type": "function"
    },
    {
      "inputs": [
        {
          "internalType": "address",
          "name": "from",
          "type": "address"
        },
        {
          "internalType": "address",
          "name": "to",
          "type": "address"
        },
        {
          "internalType": "uint256",
          "name": "tokenId",
          "type": "uint256"
        }
      ],
      "name": "safeTransferFrom",
      "outputs": [],
      "stateMutability": "nonpayable",
      "type": "function"
    },
    {
      "inputs": [
        {
          "internalType": "address",
          "name": "from",
          "type": "address"
        },
        {
          "internalType": "address",
          "name": "to",
          "type": "address"
        },
        {
          "internalType": "uint256",
          "name": "tokenId",
          "type": "uint256"
        },
        {
          "internalType": "bytes",
          "name": "data",
          "type": "bytes"
        }
      ],
      "name": "safeTransferFrom",
      "outputs": [],
      "stateMutability": "nonpayable",
      "type": "function"
    },
    {
      "inputs": [
        {
          "internalType": "address",
          "name": "operator",
          "type": "address"
        },
        {
          "internalType": "bool",
          "name": "approved",
          "type": "bool"
        }
      ],
      "name": "setApprovalForAll",
      "outputs": [],
      "stateMutability": "nonpayable",
      "type": "function"
    },
    {
      "inputs": [
        {
          "internalType": "bytes4",
          "name": "interfaceId",
          "type": "bytes4"
        }
      ],
      "name": "supportsInterface",
      "outputs": [
        {
          "internalType": "bool",
          "name": "",
          "type": "bool"
        }
      ],
      "stateMutability": "view",
      "type": "function"
    },
    {
      "inputs": [],
      "name": "symbol",
      "outputs": [
        {
          "internalType": "string",
          "name": "",
          "type": "string"
        }
      ],
      "stateMutability": "view",
      "type": "function"
    },
    {
      "inputs": [
        {
          "internalType": "uint256",
          "name": "index",
          "type": "uint256"
        }
      ],
      "name": "tokenByIndex",
      "outputs": [
        {
          "internalType": "uint256",
          "name": "",
          "type": "uint256"
        }
      ],
      "stateMutability": "view",
      "type": "function"
    },
    {
      "inputs": [
        {
          "internalType": "address",
          "name": "owner",
          "type": "address"
        },
        {
          "internalType": "uint256",
          "name": "index",
          "type": "uint256"
        }
      ],
      "name": "tokenOfOwnerByIndex",
      "outputs": [
        {
          "internalType": "uint256",
          "name": "",
          "type": "uint256"
        }
      ],
      "stateMutability": "view",
      "type": "function"
    },
    {
      "inputs": [
        {
          "internalType": "uint256",
          "name": "tokenId",
          "type": "uint256"
        }
      ],
      "name": "tokenURI",
      "outputs": [
        {
          "internalType": "string",
          "name": "",
          "type": "string"
        }
      ],
      "stateMutability": "view",
      "type": "function"
    },
    {
      "inputs": [],
      "name": "totalSupply",
      "outputs": [
        {
          "internalType": "uint256",
          "name": "",
          "type": "uint256"
        }
      ],
      "stateMutability": "view",
      "type": "function"
    },
    {
      "inputs": [
        {
          "internalType": "address",
          "name": "from",
          "type": "address"
        },
        {
          "internalType": "address",
          "name": "to",
          "type": "address"
        },
        {
          "internalType": "uint256",
          "name": "tokenId",
          "type": "uint256"
        }
      ],
      "name": "transferFrom",
      "outputs": [],
      "stateMutability": "nonpayable",
      "type": "function"
    },
    {
      "inputs": [
        {
          "internalType": "address",
          "name": "newOwner",
          "type": "address"
        }
      ],
      "name": "transferOwnership",
      "outputs": [],
      "stateMutability": "nonpayable",
      "type": "function"
    }
  ],
  "bytecode": "0x60806040523480156200001157600080fd5b506040518060400160405280600781526020017f546573744e4654000000000000000000000000000000000000000000000000008152506040518060400160405280600481526020017f544e465400000000000000000000000000000000000000000000000000000000815250816000908051906020019062000096929190620001a6565b508060019080519060200190620000af929190620001a6565b505050620000d2620000c6620000d860201b60201c565b620000e060201b60201c565b620002bb565b600033905090565b6000600b60009054906101000a900473ffffffffffffffffffffffffffffffffffffffff16905081600b60006101000a81548173ffffffffffffffffffffffffffffffffffffffff021916908373ffffffffffffffffffffffffffffffffffffffff1602179055508173ffffffffffffffffffffffffffffffffffffffff168173ffffffffffffffffffffffffffffffffffffffff167f8be0079c531659141344cd1fd0a4f28419497f9722a3daafe3b4186f6b6457e060405160405180910390a35050565b828054620001b49062000285565b90600052602060002090601f016020900481019282620001d8576000855562000224565b82601f10620001f357805160ff191683800117855562000224565b8280016001018555821562000224579182015b828111156200022357825182559160200191906001019062000206565b5b50905062000233919062000237565b5090565b5b808211156200025257600081600090555060010162000238565b5090565b7f4e487b7100000000000000000000000000000000000000000000000000000000600052602260045260246000fd5b600060028204905060018216806200029e57607f821691505b60208210811415620002b557620002b462000256565b5b50919050565b6137a880620002cb6000396000f3fe608060405234801561001057600080fd5b506004361061014d5760003560e01c806370a08231116100c3578063a22cb4651161007c578063a22cb465146103b2578063b88d4fde146103ce578063c87b56dd146103ea578063d8f73ed51461041a578063e985e9c514610436578063f2fde38b146104665761014d565b806370a08231146102f0578063715018a61461032057806378f386b11461032a5780638da5cb5b1461035a5780639500dcd51461037857806395d89b41146103945761014d565b806323b872dd1161011557806323b872dd1461020a5780632f745c591461022657806342842e0e146102565780634f6ccce7146102725780635763440b146102a25780636352211e146102c05761014d565b806301ffc9a71461015257806306fdde0314610182578063081812fc146101a0578063095ea7b3146101d057806318160ddd146101ec575b600080fd5b61016c6004803603810190610167919061244e565b610482565b6040516101799190612496565b60405180910390f35b61018a610494565b604051610197919061254a565b60405180910390f35b6101ba60048036038101906101b591906125a2565b610526565b6040516101c79190612610565b60405180910390f35b6101ea60048036038101906101e59190612657565b61056c565b005b6101f4610684565b60405161020191906126a6565b60405180910390f35b610224600480360381019061021f91906126c1565b610691565b005b610240600480360381019061023b9190612657565b6106f1565b60405161024d91906126a6565b60405180910390f35b610270600480360381019061026b91906126c1565b610796565b005b61028c600480360381019061028791906125a2565b6107b6565b60405161029991906126a6565b60405180910390f35b6102aa610827565b6040516102b791906126a6565b60405180910390f35b6102da60048036038101906102d591906125a2565b610838565b6040516102e79190612610565b60405180910390f35b61030a60048036038101906103059190612714565b6108ea565b60405161031791906126a6565b60405180910390f35b6103286109a2565b005b610344600480360381019061033f91906125a2565b6109b6565b604051610351919061254a565b60405180910390f35b610362610a6a565b60405161036f9190612610565b60405180910390f35b610392600480360381019061038d9190612876565b610a94565b005b61039c610ad0565b6040516103a9919061254a565b60405180910390f35b6103cc60048036038101906103c791906128fe565b610b62565b005b6103e860048036038101906103e391906129df565b610b78565b005b61040460048036038101906103ff91906125a2565b610bda565b604051610411919061254a565b60405180910390f35b610434600480360381019061042f9190612876565b610bec565b005b610450600480360381019061044b9190612a62565b610c28565b60405161045d9190612496565b60405180910390f35b610480600480360381019061047b9190612714565b610cbc565b005b600061048d82610d40565b9050919050565b6060600080546104a390612ad1565b80601f01602080910402602001604051908101604052809291908181526020018280546104cf90612ad1565b801561051c5780601f106104f15761010080835404028352916020019161051c565b820191906000526020600020905b8154815290600101906020018083116104ff57829003601f168201915b5050505050905090565b600061053182610dba565b6004600083815260200190815260200160002060009054906101000a900473ffffffffffffffffffffffffffffffffffffffff169050919050565b600061057782610838565b90508073ffffffffffffffffffffffffffffffffffffffff168373ffffffffffffffffffffffffffffffffffffffff1614156105e8576040517f08c379a00000000000000000000000000000000000000000000000000000000081526004016105df90612b75565b60405180910390fd5b8073ffffffffffffffffffffffffffffffffffffffff16610607610e05565b73ffffffffffffffffffffffffffffffffffffffff161480610636575061063581610630610e05565b610c28565b5b610675576040517f08c379a000000000000000000000000000000000000000000000000000000000815260040161066c90612c07565b60405180910390fd5b61067f8383610e0d565b505050565b6000600880549050905090565b6106a261069c610e05565b82610ec6565b6106e1576040517f08c379a00000000000000000000000000000000000000000000000000000000081526004016106d890612c99565b60405180910390fd5b6106ec838383610f5b565b505050565b60006106fc836108ea565b821061073d576040517f08c379a000000000000000000000000000000000000000000000000000000000815260040161073490612d2b565b60405180910390fd5b600660008473ffffffffffffffffffffffffffffffffffffffff1673ffffffffffffffffffffffffffffffffffffffff168152602001908152602001600020600083815260200190815260200160002054905092915050565b6107b183838360405180602001604052806000815250610b78565b505050565b60006107c0610684565b8210610801576040517f08c379a00000000000000000000000000000000000000000000000000000000081526004016107f890612dbd565b60405180910390fd5b6008828154811061081557610814612ddd565b5b90600052602060002001549050919050565b6000610833600e6111c2565b905090565b6000806002600084815260200190815260200160002060009054906101000a900473ffffffffffffffffffffffffffffffffffffffff169050600073ffffffffffffffffffffffffffffffffffffffff168173ffffffffffffffffffffffffffffffffffffffff1614156108e1576040517f08c379a00000000000000000000000000000000000000000000000000000000081526004016108d890612e58565b60405180910390fd5b80915050919050565b60008073ffffffffffffffffffffffffffffffffffffffff168273ffffffffffffffffffffffffffffffffffffffff16141561095b576040517f08c379a000000000000000000000000000000000000000000000000000000000815260040161095290612eea565b60405180910390fd5b600360008373ffffffffffffffffffffffffffffffffffffffff1673ffffffffffffffffffffffffffffffffffffffff168152602001908152602001600020549050919050565b6109aa6111d0565b6109b4600061124e565b565b60606000600c60008481526020019081526020016000205490506000600d600085815260200190815260200160002054905081546001811660008114610a035760018114610a2457610a61565b600260ff83160480865260ff19831660208701526040860160405250610a61565b6002820460008187525b81602082021015610a52578085015460208202602089010152600181019050610a2e565b60208102602001870160405250505b50505050919050565b6000600b60009054906101000a900473ffffffffffffffffffffffffffffffffffffffff16905090565b610a9c6111d0565b610aaf82610aaa600e6111c2565b611314565b610ac2610abc600e6111c2565b82611332565b610acc600e6113a6565b5050565b606060018054610adf90612ad1565b80601f0160208091040260200160405190810160405280929190818152602001828054610b0b90612ad1565b8015610b585780601f10610b2d57610100808354040283529160200191610b58565b820191906000526020600020905b815481529060010190602001808311610b3b57829003601f168201915b5050505050905090565b610b74610b6d610e05565b83836113bc565b5050565b610b89610b83610e05565b83610ec6565b610bc8576040517f08c379a0000000000000000000000000000000000000000000000000000000008152600401610bbf90612c99565b60405180910390fd5b610bd484848484611529565b50505050565b6060610be582611585565b9050919050565b610bf46111d0565b610c0782610c02600e6111c2565b611314565b610c1a610c14600e6111c2565b82611698565b610c24600e6113a6565b5050565b6000600560008473ffffffffffffffffffffffffffffffffffffffff1673ffffffffffffffffffffffffffffffffffffffff16815260200190815260200160002060008373ffffffffffffffffffffffffffffffffffffffff1673ffffffffffffffffffffffffffffffffffffffff16815260200190815260200160002060009054906101000a900460ff16905092915050565b610cc46111d0565b600073ffffffffffffffffffffffffffffffffffffffff168173ffffffffffffffffffffffffffffffffffffffff161415610d34576040517f08c379a0000000000000000000000000000000000000000000000000000000008152600401610d2b90612f7c565b60405180910390fd5b610d3d8161124e565b50565b60007f780e9d63000000000000000000000000000000000000000000000000000000007bffffffffffffffffffffffffffffffffffffffffffffffffffffffff1916827bffffffffffffffffffffffffffffffffffffffffffffffffffffffff19161480610db35750610db282611784565b5b9050919050565b610dc381611866565b610e02576040517f08c379a0000000000000000000000000000000000000000000000000000000008152600401610df990612e58565b60405180910390fd5b50565b600033905090565b816004600083815260200190815260200160002060006101000a81548173ffffffffffffffffffffffffffffffffffffffff021916908373ffffffffffffffffffffffffffffffffffffffff160217905550808273ffffffffffffffffffffffffffffffffffffffff16610e8083610838565b73ffffffffffffffffffffffffffffffffffffffff167f8c5be1e5ebec7d5bd14f71427d1e84f3dd0314c0f7b2291e5b200ac8c7c3b92560405160405180910390a45050565b600080610ed283610838565b90508073ffffffffffffffffffffffffffffffffffffffff168473ffffffffffffffffffffffffffffffffffffffff161480610f145750610f138185610c28565b5b80610f5257508373ffffffffffffffffffffffffffffffffffffffff16610f3a84610526565b73ffffffffffffffffffffffffffffffffffffffff16145b91505092915050565b8273ffffffffffffffffffffffffffffffffffffffff16610f7b82610838565b73ffffffffffffffffffffffffffffffffffffffff1614610fd1576040517f08c379a0000000000000000000000000000000000000000000000000000000008152600401610fc89061300e565b60405180910390fd5b600073ffffffffffffffffffffffffffffffffffffffff168273ffffffffffffffffffffffffffffffffffffffff161415611041576040517f08c379a0000000000000000000000000000000000000000000000000000000008152600401611038906130a0565b60405180910390fd5b61104c8383836118d2565b611057600082610e0d565b6001600360008573ffffffffffffffffffffffffffffffffffffffff1673ffffffffffffffffffffffffffffffffffffffff16815260200190815260200160002060008282546110a791906130ef565b925050819055506001600360008473ffffffffffffffffffffffffffffffffffffffff1673ffffffffffffffffffffffffffffffffffffffff16815260200190815260200160002060008282546110fe9190613123565b92505081905550816002600083815260200190815260200160002060006101000a81548173ffffffffffffffffffffffffffffffffffffffff021916908373ffffffffffffffffffffffffffffffffffffffff160217905550808273ffffffffffffffffffffffffffffffffffffffff168473ffffffffffffffffffffffffffffffffffffffff167fddf252ad1be2c89b69c2b068fc378daa952ba7f163c4a11628f55a4df523b3ef60405160405180910390a46111bd8383836118e2565b505050565b600081600001549050919050565b6111d8610e05565b73ffffffffffffffffffffffffffffffffffffffff166111f6610a6a565b73ffffffffffffffffffffffffffffffffffffffff161461124c576040517f08c379a0000000000000000000000000000000000000000000000000000000008152600401611243906131c5565b60405180910390fd5b565b6000600b60009054906101000a900473ffffffffffffffffffffffffffffffffffffffff16905081600b60006101000a81548173ffffffffffffffffffffffffffffffffffffffff021916908373ffffffffffffffffffffffffffffffffffffffff1602179055508173ffffffffffffffffffffffffffffffffffffffff168173ffffffffffffffffffffffffffffffffffffffff167f8be0079c531659141344cd1fd0a4f28419497f9722a3daafe3b4186f6b6457e060405160405180910390a35050565b61132e8282604051806020016040528060008152506118e7565b5050565b61133b82611866565b61137a576040517f08c379a000000000000000000000000000000000000000000000000000000000815260040161137190613257565b60405180910390fd5b80600a600084815260200190815260200160002090805190602001906113a192919061233f565b505050565b6001816000016000828254019250508190555050565b8173ffffffffffffffffffffffffffffffffffffffff168373ffffffffffffffffffffffffffffffffffffffff16141561142b576040517f08c379a0000000000000000000000000000000000000000000000000000000008152600401611422906132c3565b60405180910390fd5b80600560008573ffffffffffffffffffffffffffffffffffffffff1673ffffffffffffffffffffffffffffffffffffffff16815260200190815260200160002060008473ffffffffffffffffffffffffffffffffffffffff1673ffffffffffffffffffffffffffffffffffffffff16815260200190815260200160002060006101000a81548160ff0219169083151502179055508173ffffffffffffffffffffffffffffffffffffffff168373ffffffffffffffffffffffffffffffffffffffff167f17307eab39ab6107e8899845ad3d59bd9653f200f220920489ca2b5937696c318360405161151c9190612496565b60405180910390a3505050565b611534848484610f5b565b61154084848484611942565b61157f576040517f08c379a000000000000000000000000000000000000000000000000000000000815260040161157690613355565b60405180910390fd5b50505050565b606061159082610dba565b6000600a600084815260200190815260200160002080546115b090612ad1565b80601f01602080910402602001604051908101604052809291908181526020018280546115dc90612ad1565b80156116295780601f106115fe57610100808354040283529160200191611629565b820191906000526020600020905b81548152906001019060200180831161160c57829003601f168201915b50505050509050600061163a611ad9565b9050600081511415611650578192505050611693565b60008251111561168557808260405160200161166d9291906133b1565b60405160208183030381529060405292505050611693565b61168e84611af0565b925050505b919050565b6000826040516020016116ab9190613442565b6040516020818303038152906040528051906020012090506000816040516020016116d69190613493565b60405160208183030381529060405280519060200120905081600c60008681526020019081526020016000208190555080600d6000868152602001908152602001600020819055508251601f811160008114611739576001811461174a5761177c565b60028202602086015117845561177c565b60016002830201845560005b8260208202101561177a576020600182010286015181850155600181019050611756565b505b505050505050565b60007f80ac58cd000000000000000000000000000000000000000000000000000000007bffffffffffffffffffffffffffffffffffffffffffffffffffffffff1916827bffffffffffffffffffffffffffffffffffffffffffffffffffffffff1916148061184f57507f5b5e139f000000000000000000000000000000000000000000000000000000007bffffffffffffffffffffffffffffffffffffffffffffffffffffffff1916827bffffffffffffffffffffffffffffffffffffffffffffffffffffffff1916145b8061185f575061185e82611b58565b5b9050919050565b60008073ffffffffffffffffffffffffffffffffffffffff166002600084815260200190815260200160002060009054906101000a900473ffffffffffffffffffffffffffffffffffffffff1673ffffffffffffffffffffffffffffffffffffffff1614159050919050565b6118dd838383611bc2565b505050565b505050565b6118f18383611cd6565b6118fe6000848484611942565b61193d576040517f08c379a000000000000000000000000000000000000000000000000000000000815260040161193490613355565b60405180910390fd5b505050565b60006119638473ffffffffffffffffffffffffffffffffffffffff16611eb0565b15611acc578373ffffffffffffffffffffffffffffffffffffffff1663150b7a0261198c610e05565b8786866040518563ffffffff1660e01b81526004016119ae9493929190613503565b602060405180830381600087803b1580156119c857600080fd5b505af19250505080156119f957506040513d601f19601f820116820180604052508101906119f69190613564565b60015b611a7c573d8060008114611a29576040519150601f19603f3d011682016040523d82523d6000602084013e611a2e565b606091505b50600081511415611a74576040517f08c379a0000000000000000000000000000000000000000000000000000000008152600401611a6b90613355565b60405180910390fd5b805181602001fd5b63150b7a0260e01b7bffffffffffffffffffffffffffffffffffffffffffffffffffffffff1916817bffffffffffffffffffffffffffffffffffffffffffffffffffffffff191614915050611ad1565b600190505b949350505050565b606060405180602001604052806000815250905090565b6060611afb82610dba565b6000611b05611ad9565b90506000815111611b255760405180602001604052806000815250611b50565b80611b2f84611ed3565b604051602001611b409291906133b1565b6040516020818303038152906040525b915050919050565b60007f01ffc9a7000000000000000000000000000000000000000000000000000000007bffffffffffffffffffffffffffffffffffffffffffffffffffffffff1916827bffffffffffffffffffffffffffffffffffffffffffffffffffffffff1916149050919050565b611bcd838383612034565b600073ffffffffffffffffffffffffffffffffffffffff168373ffffffffffffffffffffffffffffffffffffffff161415611c1057611c0b81612039565b611c4f565b8173ffffffffffffffffffffffffffffffffffffffff168373ffffffffffffffffffffffffffffffffffffffff1614611c4e57611c4d8382612082565b5b5b600073ffffffffffffffffffffffffffffffffffffffff168273ffffffffffffffffffffffffffffffffffffffff161415611c9257611c8d816121ef565b611cd1565b8273ffffffffffffffffffffffffffffffffffffffff168273ffffffffffffffffffffffffffffffffffffffff1614611cd057611ccf82826122c0565b5b5b505050565b600073ffffffffffffffffffffffffffffffffffffffff168273ffffffffffffffffffffffffffffffffffffffff161415611d46576040517f08c379a0000000000000000000000000000000000000000000000000000000008152600401611d3d906135dd565b60405180910390fd5b611d4f81611866565b15611d8f576040517f08c379a0000000000000000000000000000000000000000000000000000000008152600401611d8690613649565b60405180910390fd5b611d9b600083836118d2565b6001600360008473ffffffffffffffffffffffffffffffffffffffff1673ffffffffffffffffffffffffffffffffffffffff1681526020019081526020016000206000828254611deb9190613123565b92505081905550816002600083815260200190815260200160002060006101000a81548173ffffffffffffffffffffffffffffffffffffffff021916908373ffffffffffffffffffffffffffffffffffffffff160217905550808273ffffffffffffffffffffffffffffffffffffffff16600073ffffffffffffffffffffffffffffffffffffffff167fddf252ad1be2c89b69c2b068fc378daa952ba7f163c4a11628f55a4df523b3ef60405160405180910390a4611eac600083836118e2565b5050565b6000808273ffffffffffffffffffffffffffffffffffffffff163b119050919050565b60606000821415611f1b576040518060400160405280600181526020017f3000000000000000000000000000000000000000000000000000000000000000815250905061202f565b600082905060005b60008214611f4d578080611f3690613669565b915050600a82611f4691906136e1565b9150611f23565b60008167ffffffffffffffff811115611f6957611f6861274b565b5b6040519080825280601f01601f191660200182016040528015611f9b5781602001600182028036833780820191505090505b5090505b6000851461202857600182611fb491906130ef565b9150600a85611fc39190613712565b6030611fcf9190613123565b60f81b818381518110611fe557611fe4612ddd565b5b60200101907effffffffffffffffffffffffffffffffffffffffffffffffffffffffffffff1916908160001a905350600a8561202191906136e1565b9450611f9f565b8093505050505b919050565b505050565b6008805490506009600083815260200190815260200160002081905550600881908060018154018082558091505060019003906000526020600020016000909190919091505550565b6000600161208f846108ea565b61209991906130ef565b905060006007600084815260200190815260200160002054905081811461217e576000600660008673ffffffffffffffffffffffffffffffffffffffff1673ffffffffffffffffffffffffffffffffffffffff168152602001908152602001600020600084815260200190815260200160002054905080600660008773ffffffffffffffffffffffffffffffffffffffff1673ffffffffffffffffffffffffffffffffffffffff168152602001908152602001600020600084815260200190815260200160002081905550816007600083815260200190815260200160002081905550505b6007600084815260200190815260200160002060009055600660008573ffffffffffffffffffffffffffffffffffffffff1673ffffffffffffffffffffffffffffffffffffffff16815260200190815260200160002060008381526020019081526020016000206000905550505050565b6000600160088054905061220391906130ef565b905060006009600084815260200190815260200160002054905060006008838154811061223357612232612ddd565b5b90600052602060002001549050806008838154811061225557612254612ddd565b5b9060005260206000200181905550816009600083815260200190815260200160002081905550600960008581526020019081526020016000206000905560088054806122a4576122a3613743565b5b6001900381819060005260206000200160009055905550505050565b60006122cb836108ea565b905081600660008573ffffffffffffffffffffffffffffffffffffffff1673ffffffffffffffffffffffffffffffffffffffff168152602001908152602001600020600083815260200190815260200160002081905550806007600084815260200190815260200160002081905550505050565b82805461234b90612ad1565b90600052602060002090601f01602090048101928261236d57600085556123b4565b82601f1061238657805160ff19168380011785556123b4565b828001600101855582156123b4579182015b828111156123b3578251825591602001919060010190612398565b5b5090506123c191906123c5565b5090565b5b808211156123de5760008160009055506001016123c6565b5090565b6000604051905090565b600080fd5b600080fd5b60007fffffffff0000000000000000000000000000000000000000000000000000000082169050919050565b61242b816123f6565b811461243657600080fd5b50565b60008135905061244881612422565b92915050565b600060208284031215612464576124636123ec565b5b600061247284828501612439565b91505092915050565b60008115159050919050565b6124908161247b565b82525050565b60006020820190506124ab6000830184612487565b92915050565b600081519050919050565b600082825260208201905092915050565b60005b838110156124eb5780820151818401526020810190506124d0565b838111156124fa576000848401525b50505050565b6000601f19601f8301169050919050565b600061251c826124b1565b61252681856124bc565b93506125368185602086016124cd565b61253f81612500565b840191505092915050565b600060208201905081810360008301526125648184612511565b905092915050565b6000819050919050565b61257f8161256c565b811461258a57600080fd5b50565b60008135905061259c81612576565b92915050565b6000602082840312156125b8576125b76123ec565b5b60006125c68482850161258d565b91505092915050565b600073ffffffffffffffffffffffffffffffffffffffff82169050919050565b60006125fa826125cf565b9050919050565b61260a816125ef565b82525050565b60006020820190506126256000830184612601565b92915050565b612634816125ef565b811461263f57600080fd5b50565b6000813590506126518161262b565b92915050565b6000806040838503121561266e5761266d6123ec565b5b600061267c85828601612642565b925050602061268d8582860161258d565b9150509250929050565b6126a08161256c565b82525050565b60006020820190506126bb6000830184612697565b92915050565b6000806000606084860312156126da576126d96123ec565b5b60006126e886828701612642565b93505060206126f986828701612642565b925050604061270a8682870161258d565b9150509250925092565b60006020828403121561272a576127296123ec565b5b600061273884828501612642565b91505092915050565b600080fd5b600080fd5b7f4e487b7100000000000000000000000000000000000000000000000000000000600052604160045260246000fd5b61278382612500565b810181811067ffffffffffffffff821117156127a2576127a161274b565b5b80604052505050565b60006127b56123e2565b90506127c1828261277a565b919050565b600067ffffffffffffffff8211156127e1576127e061274b565b5b6127ea82612500565b9050602081019050919050565b82818337600083830152505050565b6000612819612814846127c6565b6127ab565b90508281526020810184848401111561283557612834612746565b5b6128408482856127f7565b509392505050565b600082601f83011261285d5761285c612741565b5b813561286d848260208601612806565b91505092915050565b6000806040838503121561288d5761288c6123ec565b5b600061289b85828601612642565b925050602083013567ffffffffffffffff8111156128bc576128bb6123f1565b5b6128c885828601612848565b9150509250929050565b6128db8161247b565b81146128e657600080fd5b50565b6000813590506128f8816128d2565b92915050565b60008060408385031215612915576129146123ec565b5b600061292385828601612642565b9250506020612934858286016128e9565b9150509250929050565b600067ffffffffffffffff8211156129595761295861274b565b5b61296282612500565b9050602081019050919050565b600061298261297d8461293e565b6127ab565b90508281526020810184848401111561299e5761299d612746565b5b6129a98482856127f7565b509392505050565b600082601f8301126129c6576129c5612741565b5b81356129d684826020860161296f565b91505092915050565b600080600080608085870312156129f9576129f86123ec565b5b6000612a0787828801612642565b9450506020612a1887828801612642565b9350506040612a298782880161258d565b925050606085013567ffffffffffffffff811115612a4a57612a496123f1565b5b612a56878288016129b1565b91505092959194509250565b60008060408385031215612a7957612a786123ec565b5b6000612a8785828601612642565b9250506020612a9885828601612642565b9150509250929050565b7f4e487b7100000000000000000000000000000000000000000000000000000000600052602260045260246000fd5b60006002820490506001821680612ae957607f821691505b60208210811415612afd57612afc612aa2565b5b50919050565b7f4552433732313a20617070726f76616c20746f2063757272656e74206f776e6560008201527f7200000000000000000000000000000000000000000000000000000000000000602082015250565b6000612b5f6021836124bc565b9150612b6a82612b03565b604082019050919050565b60006020820190508181036000830152612b8e81612b52565b9050919050565b7f4552433732313a20617070726f76652063616c6c6572206973206e6f7420746f60008201527f6b656e206f776e6572206e6f7220617070726f76656420666f7220616c6c0000602082015250565b6000612bf1603e836124bc565b9150612bfc82612b95565b604082019050919050565b60006020820190508181036000830152612c2081612be4565b9050919050565b7f4552433732313a2063616c6c6572206973206e6f7420746f6b656e206f776e6560008201527f72206e6f7220617070726f766564000000000000000000000000000000000000602082015250565b6000612c83602e836124bc565b9150612c8e82612c27565b604082019050919050565b60006020820190508181036000830152612cb281612c76565b9050919050565b7f455243373231456e756d657261626c653a206f776e657220696e646578206f7560008201527f74206f6620626f756e6473000000000000000000000000000000000000000000602082015250565b6000612d15602b836124bc565b9150612d2082612cb9565b604082019050919050565b60006020820190508181036000830152612d4481612d08565b9050919050565b7f455243373231456e756d657261626c653a20676c6f62616c20696e646578206f60008201527f7574206f6620626f756e64730000000000000000000000000000000000000000602082015250565b6000612da7602c836124bc565b9150612db282612d4b565b604082019050919050565b60006020820190508181036000830152612dd681612d9a565b9050919050565b7f4e487b7100000000000000000000000000000000000000000000000000000000600052603260045260246000fd5b7f4552433732313a20696e76616c696420746f6b656e2049440000000000000000600082015250565b6000612e426018836124bc565b9150612e4d82612e0c565b602082019050919050565b60006020820190508181036000830152612e7181612e35565b9050919050565b7f4552433732313a2061646472657373207a65726f206973206e6f74206120766160008201527f6c6964206f776e65720000000000000000000000000000000000000000000000602082015250565b6000612ed46029836124bc565b9150612edf82612e78565b604082019050919050565b60006020820190508181036000830152612f0381612ec7565b9050919050565b7f4f776e61626c653a206e6577206f776e657220697320746865207a65726f206160008201527f6464726573730000000000000000000000000000000000000000000000000000602082015250565b6000612f666026836124bc565b9150612f7182612f0a565b604082019050919050565b60006020820190508181036000830152612f9581612f59565b9050919050565b7f4552433732313a207472616e736665722066726f6d20696e636f72726563742060008201527f6f776e6572000000000000000000000000000000000000000000000000000000602082015250565b6000612ff86025836124bc565b915061300382612f9c565b604082019050919050565b6000602082019050818103600083015261302781612feb565b9050919050565b7f4552433732313a207472616e7366657220746f20746865207a65726f2061646460008201527f7265737300000000000000000000000000000000000000000000000000000000602082015250565b600061308a6024836124bc565b91506130958261302e565b604082019050919050565b600060208201905081810360008301526130b98161307d565b9050919050565b7f4e487b7100000000000000000000000000000000000000000000000000000000600052601160045260246000fd5b60006130fa8261256c565b91506131058361256c565b925082821015613118576131176130c0565b5b828203905092915050565b600061312e8261256c565b91506131398361256c565b9250827fffffffffffffffffffffffffffffffffffffffffffffffffffffffffffffffff0382111561316e5761316d6130c0565b5b828201905092915050565b7f4f776e61626c653a2063616c6c6572206973206e6f7420746865206f776e6572600082015250565b60006131af6020836124bc565b91506131ba82613179565b602082019050919050565b600060208201905081810360008301526131de816131a2565b9050919050565b7f45524337323155524953746f726167653a2055524920736574206f66206e6f6e60008201527f6578697374656e7420746f6b656e000000000000000000000000000000000000602082015250565b6000613241602e836124bc565b915061324c826131e5565b604082019050919050565b6000602082019050818103600083015261327081613234565b9050919050565b7f4552433732313a20617070726f766520746f2063616c6c657200000000000000600082015250565b60006132ad6019836124bc565b91506132b882613277565b602082019050919050565b600060208201905081810360008301526132dc816132a0565b9050919050565b7f4552433732313a207472616e7366657220746f206e6f6e20455243373231526560008201527f63656976657220696d706c656d656e7465720000000000000000000000000000602082015250565b600061333f6032836124bc565b915061334a826132e3565b604082019050919050565b6000602082019050818103600083015261336e81613332565b9050919050565b600081905092915050565b600061338b826124b1565b6133958185613375565b93506133a58185602086016124cd565b80840191505092915050565b60006133bd8285613380565b91506133c98284613380565b91508190509392505050565b7f7465787473746f726167656c6f636174696f6e30000000000000000000000000600082015250565b600061340b601483613375565b9150613416826133d5565b601482019050919050565b6000819050919050565b61343c6134378261256c565b613421565b82525050565b600061344d826133fe565b9150613459828461342b565b60208201915081905092915050565b6000819050919050565b6000819050919050565b61348d61348882613468565b613472565b82525050565b600061349f828461347c565b60208201915081905092915050565b600081519050919050565b600082825260208201905092915050565b60006134d5826134ae565b6134df81856134b9565b93506134ef8185602086016124cd565b6134f881612500565b840191505092915050565b60006080820190506135186000830187612601565b6135256020830186612601565b6135326040830185612697565b818103606083015261354481846134ca565b905095945050505050565b60008151905061355e81612422565b92915050565b60006020828403121561357a576135796123ec565b5b60006135888482850161354f565b91505092915050565b7f4552433732313a206d696e7420746f20746865207a65726f2061646472657373600082015250565b60006135c76020836124bc565b91506135d282613591565b602082019050919050565b600060208201905081810360008301526135f6816135ba565b9050919050565b7f4552433732313a20746f6b656e20616c7265616479206d696e74656400000000600082015250565b6000613633601c836124bc565b915061363e826135fd565b602082019050919050565b6000602082019050818103600083015261366281613626565b9050919050565b60006136748261256c565b91507fffffffffffffffffffffffffffffffffffffffffffffffffffffffffffffffff8214156136a7576136a66130c0565b5b600182019050919050565b7f4e487b7100000000000000000000000000000000000000000000000000000000600052601260045260246000fd5b60006136ec8261256c565b91506136f78361256c565b925082613707576137066136b2565b5b828204905092915050565b600061371d8261256c565b91506137288361256c565b925082613738576137376136b2565b5b828206905092915050565b7f4e487b7100000000000000000000000000000000000000000000000000000000600052603160045260246000fdfea26469706673582212208fb910490febb9c052ed720a162b6bd6565de061e39317e054fd248f4f369ef164736f6c63430008090033",
  "linkReferences": {},
  "deployedLinkReferences": {}
}